:020000040800F2
:100000000020002061040008150400081D040008F9
:1000100000000000000000000000000000000000E0
:10002000000000000000000000000000250400089F
:1000300000000000000000002F0400083904000840
:10004000B1040008B1040008B1040008B1040008BC
:10005000B104000847040008B1040008B104000816
:10006000B1040008B1040008B1040008B10400089C
:10007000B1040008B1040008B1040008B10400088C
:10008000B1040008B104000800000000B104000839
:10009000B1040008B1040008B1040008B10400086C
:1000A000B1040008B1040008B1040008B10400085C
:1000B000B104000800000000B104000800000000C6
:1000C00010B5064C2378002B07D1054B002B02D02E
:1000D000044800E000BF0123237010BD1000002081
:1000E00000000000DC140008044B10B5002B03D006
:1000F0000349044800E000BF10BDC04600000000F6
:1001000014000020DC140008002243088B4274D342
:1001100003098B425FD3030A8B4244D3030B8B4208
:1001200028D3030C8B420DD3FF22090212BA030C11
:100130008B4202D31212090265D0030B8B4219D3F2
:1001400000E0090AC30B8B4201D3CB03C01A524112
:10015000830B8B4201D38B03C01A5241430B8B425A
:1001600001D34B03C01A5241030B8B4201D30B0343
:10017000C01A5241C30A8B4201D3CB02C01A52416A
:10018000830A8B4201D38B02C01A5241430A8B422D
:1001900001D34B02C01A5241030A8B4201D30B0216
:1001A000C01A5241CDD2C3098B4201D3CB01C01A30
:1001B000524183098B4201D38B01C01A524143093A
:1001C0008B4201D34B01C01A524103098B4201D328
:1001D0000B01C01A5241C3088B4201D3CB00C01A95
:1001E000524183088B4201D38B00C01A524143080D
:1001F0008B4201D34B00C01A5241411A00D2014632
:10020000524110467047FFE701B5002000F006F8A4
:1002100002BDC0460029F7D076E770477047C04658
:1002200080B500AF00F046F900F00EF800F056F887
:10023000C0239B00034A1900100001F065F801F08B
:10024000ABF8FCE70008004890B591B000AF10246F
:100250003B19180030231A00002101F013F93B006C
:10026000180010231A00002101F00CF921007B185E
:1002700002221A607B180122DA607B1810221A61B0
:100280007B1802221A627B1800225A627B18A02275
:1002900092039A627B180022DA627B18180000F041
:1002A000F5FB031E01D000F08BF83B0007221A601B
:1002B0003B0002225A603B0000229A603B00002271
:1002C000DA603B000121180000F0FAFE031E01D0A5
:1002D00000F076F8C046BD4611B090BD90B589B02B
:1002E00000AF0C243B19180014231A00002101F060
:1002F000C9F8314B5A69304B8021C9030A435A610E
:100300002D4B5A698023DB031340BB60BB682A4B2B
:100310005A69294B802189020A435A61264B5A693E
:1003200080239B0213407B607B68234B5A69224BDE
:10033000802109030A435A611F4B5A6980231B031A
:1003400013403B603B68C0239B001C4800221900FF
:1003500000F062FB3B1901221A603B19882252030C
:100360005A603B1900229A603A199023DB0511006C
:10037000180000F0E1F921007B18C02292001A60F9
:100380007B1801225A607B1800229A607B18002299
:10039000DA607B18094A1900100000F0CDF900223C
:1003A0000221052000F096F9052000F0A8F9C046CA
:1003B000BD4609B090BDC04600100240000800488C
:1003C00080B500AF72B6C046C046FDE780B582B0CA
:1003D00000AF0F4B9A690E4B01210A439A610C4BF7
:1003E0009B69012213407B607B68094BDA69084BEB
:1003F000802149050A43DA61054BDA6980235B05F0
:1004000013403B603B68C046BD4602B080BDC0465D
:100410000010024080B500AFC046FDE780B500AFD8
:10042000C046FDE780B500AFC046BD4680BD80B583
:1004300000AFC046BD4680BD80B500AF00F082F879
:10044000C046BD4680BD80B500AF012000F002FB74
:10045000C046BD4680BD80B500AFC046BD4680BD2C
:100460000D4885460D480E490E4A002302E0D45837
:10047000C4500433C4188C42F9D30B4A0B4C0023EC
:1004800001E013600432A242FBD3FFF7E4FF01F066
:1004900001F8FFF7C5FEFEE7002000200000002065
:1004A000100000202C15000810000020380000204B
:1004B000FEE7000080B500AF074B1A68064B10211D
:1004C0000A431A60012000F009F8FFF77FFF0023BC
:1004D0001800BD4680BDC0460020024090B583B0E4
:1004E00000AF7860144B1C68144B1B781900FA237A
:1004F0009800FFF709FE030019002000FFF704FE33
:100500000300180000F00BF9031E01D001230FE0D7
:100510007B68032B0BD8796801235B42002218000B
:1005200000F0D8F8064B7A681A60002300E0012337
:100530001800BD4603B090BD040000200C00002050
:100540000800002080B500AF054B1B781A00054B52
:100550001B68D218034B1A60C046BD4680BDC0461A
:100560000C0000203000002080B500AF024B1B685B
:100570001800BD4680BDC0463000002080B582B066
:1005800000AF0200FB1D1A70FB1D1B787F2B09D8E2
:10059000FB1D1B781A001F231A40044B01219140B8
:1005A0000A001A60C046BD4602B080BD00E100E00E
:1005B00090B583B000AF02003960FB1D1A70FB1DBF
:1005C0001B787F2B28D82F4AFB1D1B785BB29B081A
:1005D000C0339B009B58FA1D1278110003220A4079
:1005E000D200FF2191400A00D2431A4011003B681B
:1005F0009B01FF221A40FB1D1B78180003230340B8
:10060000DB009A401F48FB1D1B785BB29B080A4326
:10061000C0339B001A5031E01B4AFB1D1B781900A8
:100620000F230B40083B9B0806339B00D318043371
:100630001B68FA1D1278110003220A40D200FF2124
:1006400091400A00D2431A4011003B689B01FF22EF
:100650001A40FB1D1B78180003230340DB009A405F
:100660000948FB1D1B781C000F232340083B9B08F7
:100670000A4306339B00C31804331A60C046BD46C4
:1006800003B090BD00E100E000ED00E080B582B075
:1006900000AF78607B685A1E80235B049A4201D3C6
:1006A000012310E00A4B7A68013A5A6001235B4249
:1006B00003211800FFF77CFF054B00229A60044BD2
:1006C00007221A6000231800BD4602B080BDC04654
:1006D00010E000E080B584B000AFB9607A600F210F
:1006E0007B18021C1A70BA687B181B785BB2110069
:1006F0001800FFF75DFFC046BD4604B080BD80B561
:1007000082B000AF0200FB1D1A70FB1D1B785BB2AC
:100710001800FFF733FFC046BD4602B080BD80B56C
:1007200082B000AF78607B681800FFF7AFFF03006E
:100730001800BD4602B080BD80B586B000AF7860BD
:10074000396000237B614FE13B681B6801217A69B6
:1007500091400A001340FB60FB68002B00D140E190
:100760003B685B6803221340012B05D03B685B6844
:1007700003221340022B30D17B689B683B617B696D
:100780005B0003229A401300DA433B6913403B614C
:100790003B68DA687B695B009A4013003A6913434F
:1007A0003B617B683A699A607B685B683B610122C8
:1007B0007B699A401300DA433B6913403B613B6815
:1007C0005B681B0901221A407B699A4013003A6951
:1007D00013433B617B683A695A603B685B6803225C
:1007E0001340032B17D07B68DB683B617B695B00A0
:1007F00003229A401300DA433B6913403B613B6894
:100800009A687B695B009A4013003A6913433B6125
:100810007B683A69DA603B685B6803221340022B0D
:1008200023D17B69DA087B6808329200D3583B6198
:100830007B69072213409B000F229A401300DA4382
:100840003B6913403B613B681A697B6907210B4098
:100850009B009A4013003A6913433B617B69DA08B5
:100860007B68083292003969D1507B681B683B6114
:100870007B695B0003229A401300DA433B69134013
:100880003B613B685B6803221A407B695B009A40CE
:1008900013003A6913433B617B683A691A603B680D
:1008A0005A68C0239B02134000D19AE0544B9A69C6
:1008B000534B01210A439A61514B9B69012213401A
:1008C000BB60BB684F4A7B699B0802339B009B5807
:1008D0003B617B69032213409B000F229A40130067
:1008E000DA433B6913403B617A689023DB059A4207
:1008F00013D07B68444A93420DD07B68434A9342AD
:1009000007D07B68424A934201D1032306E00523C6
:1009100004E0022302E0012300E000237A690321BE
:100920000A40920093403A6913433B6135497B6921
:100930009B0802339B003A695A50364B9B683B61D7
:10094000FB68DA433B6913403B613B685A6880238C
:100950005B03134003D03A69FB6813433B612D4BA3
:100960003A699A602B4BDB683B61FB68DA433B6971
:1009700013403B613B685A6880239B03134003D0BC
:100980003A69FB6813433B61224B3A69DA60214BB9
:100990005B683B61FB68DA433B6913403B613B6842
:1009A0005A6880239B02134003D03A69FB681343C3
:1009B0003B61184B3A695A60164B1B683B61FB68F8
:1009C000DA433B6913403B613B685A6880235B0212
:1009D000134003D03A69FB6813433B610D4B3A69FE
:1009E0001A607B6901337B613B681A687B69DA4076
:1009F000131E00D0A8E6C046C046BD4606B080BD66
:100A000000100240000001400004004800080048B7
:100A1000000C00480004014080B582B000AF78604F
:100A200008001100BB1C021C1A807B1C0A1C1A70D7
:100A30007B1C1B78002B04D0BB1C1A887B689A6136
:100A400003E0BB1C1A887B689A62C046BD4602B0B0
:100A500080BD000080B582B000AF0200BB1D1A80CF
:100A6000094B5B69BA1D1288134008D0064BBA1DAA
:100A700012885A61BB1D1B88180000F075FCC04627
:100A8000BD4602B080BDC0460004014080B588B0BC
:100A900000AF78607B68002B01D1012301E37B6804
:100AA0001B680122134000D18DE0C34B5B680C2210
:100AB0001340042B0ED0C04B5B680C221340082B54
:100AC00016D1BD4B5A6880235B021A4080235B021B
:100AD0009A420DD1B84B1A6880239B02134000D173
:100AE00070E07B685B68002B00D06BE00123D8E2EC
:100AF0007B685B68012B07D1AF4B1A68AE4B802136
:100B000049020A431A602FE07B685B68002B0CD116
:100B1000A94B1A68A84BA9490A401A60A64B1A6843
:100B2000A54BA7490A401A601EE07B685B68052B4D
:100B30000ED1A14B1A68A04B8021C9020A431A604A
:100B40009D4B1A689C4B802149020A431A600BE0B6
:100B5000994B1A68984B99490A401A60964B1A6843
:100B6000954B97490A401A607B685B68002B14D04C
:100B7000FFF7FAFC0300BB6108E0FFF7F5FC020099
:100B8000BB69D31A642B01D903238AE28A4B1A6802
:100B900080239B021340F0D015E0FFF7E5FC030033
:100BA000BB6108E0FFF7E0FC0200BB69D31A642BCD
:100BB00001D9032375E2804B1A6880239B021340FE
:100BC000F0D100E0C0467B681B680222134000D1D0
:100BD00069E0794B5B680C2213400BD0764B5B6865
:100BE0000C221340082B1CD1734B5A6880235B02E4
:100BF000134016D1704B1B680222134005D07B684E
:100C0000DB68012B01D001234BE26B4B1B68F82200
:100C1000934319007B681B69DA00674B0A431A602B
:100C200041E07B68DB68002B24D0634B1A68624B81
:100C300001210A431A60FFF797FC0300BB6108E03B
:100C4000FFF792FC0200BB69D31A022B01D90323E0
:100C500027E2594B1B6802221340F1D0564B1B6808
:100C6000F822934319007B681B69DA00524B0A4350
:100C70001A6018E0504B1A684F4B01218A431A60E2
:100C8000FFF772FC0300BB6108E0FFF76DFC020098
:100C9000BB69D31A022B01D9032302E2464B1B681E
:100CA00002221340F1D17B681B680822134036D022
:100CB0007B68DB69002B19D03F4B5A6A3E4B012100
:100CC0000A435A62FFF750FC0300BB6108E0FFF7DC
:100CD0004BFC0200BB69D31A022B01D90323E0E1CC
:100CE000354B5B6A02221340F1D018E0324B5A6A4E
:100CF000314B01218A435A62FFF736FC0300BB6186
:100D000008E0FFF731FC0200BB69D31A022B01D9BE
:100D10000323C6E1284B5B6A02221340F1D17B68B2
:100D20001B680422134000D1B4E01F203B180022AE
:100D30001A70214BDA6980235B05134010D11E4BDA
:100D4000DA691D4B802149050A43DA611A4BDA69D9
:100D500080235B051340FB60FB683B1801221A707F
:100D6000184B1A6880235B0013401AD1154B1A6880
:100D7000144B802149000A431A60FFF7F5FB03007A
:100D8000BB6108E0FFF7F0FB0200BB69D31A642BDC
:100D900001D9032385E10B4B1A6880235B001340C4
:100DA000F0D07B689B68012B0ED1034B1A6A024B73
:100DB00001210A431A6235E000100240FFFFFEFFE6
:100DC000FFFFFBFF007000407B689B68002B0CD18D
:100DD000B64B1A6AB54B01218A431A62B34B1A6AA1
:100DE000B24B04218A431A621CE07B689B68052B86
:100DF0000CD1AE4B1A6AAD4B04210A431A62AB4BBD
:100E00001A6AAA4B01210A431A620BE0A74B1A6A1D
:100E1000A64B01218A431A62A44B1A6AA34B0421F0
:100E20008A431A627B689B68002B14D0FFF79CFBF7
:100E30000300BB6109E0FFF797FB0200BB69D31A0F
:100E40009B4A934201D903232BE1984B1B6A022250
:100E50001340F0D013E0FFF787FB0300BB6109E00C
:100E6000FFF782FB0200BB69D31A914A934201D972
:100E7000032316E18D4B1B6A02221340F0D11F237E
:100E8000FB181B78012B05D1884BDA69874B894900
:100E90000A40DA617B681B681022134063D07B68CC
:100EA0005B69012B2AD1814B5A6B804B04210A4389
:100EB0005A637E4B5A6B7D4B01210A435A63FFF7FD
:100EC00053FB0300BB6108E0FFF74EFB0200BB6968
:100ED000D31A022B01D90323E3E0744B5B6B02228C
:100EE0001340F1D0714B5B6BF822934319007B6880
:100EF0009B69DA006D4B0A435A6334E07B685B6997
:100F0000053311D1694B5A6B684B04218A435A63EC
:100F1000664B5B6BF822934319007B689B69DA0090
:100F2000624B0A435A631EE0604B5A6B5F4B0421CD
:100F30000A435A635D4B5A6B5C4B01218A435A63E7
:100F4000FFF712FB0300BB6108E0FFF70DFB020097
:100F5000BB69D31A022B01D90323A2E0534B5B6B6D
:100F600002221340F1D17B681B6A002B00D197E06D
:100F70004E4B5B680C221340082B00D16BE07B6862
:100F80001B6A022B4CD1494B1A68484B4A490A400C
:100F90001A60FFF7E9FA0300BB6108E0FFF7E4FA23
:100FA0000200BB69D31A022B01D9032379E03F4B1E
:100FB0001A6880239B041340F0D13C4BDB6A0F225C
:100FC000934319007B68DA6A384B0A43DA62374B7D
:100FD0005B683A4A134019007B689A6A7B685B6ACF
:100FE0001A43324B0A435A60304B1A682F4B802108
:100FF00049040A431A60FFF7B7FA0300BB6108E02F
:10100000FFF7B2FA0200BB69D31A022B01D90323FE
:1010100047E0264B1A6880239B041340F0D03FE042
:10102000224B1A68214B24490A401A60FFF79CFAA8
:101030000300BB6108E0FFF797FA0200BB69D31A0F
:10104000022B01D903232CE0184B1A6880239B0440
:101050001340F0D124E07B681B6A012B01D10123EE
:101060001FE0124B5B687B61104BDB6A3B617A6966
:1010700080235B021A407B685B6A9A420ED13B690F
:101080000F221A407B68DB6A9A4207D17A69F02303
:101090009B031A407B689B6A9A4201D0012300E0BF
:1010A00000231800BD4608B080BDC04600100240B5
:1010B00088130000FFFFFFEFFFFFFFFEFFFFC2FFEF
:1010C00080B584B000AF786039607B68002B01D1B7
:1010D0000123B3E05B4B1B68012213403A689A423C
:1010E00011D9584B1B68012293431900554B3A689C
:1010F0000A431A60534B1B68012213403A689A4214
:1011000001D001239AE07B681B680222134015D0AE
:101110007B681B680422134006D04B4B5A684A4B2D
:10112000E021C9000A435A60474B5B68F0229343B1
:1011300019007B689A68444B0A435A607B681B68B5
:101140000122134040D07B685B68012B07D13E4BE6
:101150001A6880239B02134014D101236EE07B6840
:101160005B68022B07D1384B1A6880239B0413401D
:1011700008D1012362E0344B1B680222134001D1E5
:1011800001235BE0304B5B680322934319007B68CB
:101190005A682D4B0A435A60FFF7E6F90300FB60DB
:1011A00009E0FFF7E1F90200FB68D31A274A9342EE
:1011B00001D9032342E0244B5B680C221A407B6870
:1011C0005B689B009A42ECD11E4B1B6801221340C6
:1011D0003A689A4211D21B4B1B68012293431900B3
:1011E000184B3A680A431A60164B1B6801221340D9
:1011F0003A689A4201D0012320E07B681B680422F0
:10120000134009D0104B5B68114A134019007B68EA
:10121000DA680D4B0A435A6000F020F801000A4BCF
:101220005B681B090F2213400A4AD35C0A00DA40AC
:10123000094B1A600120FFF751F900231800BD4641
:1012400004B080BD0020024000100240881300005E
:10125000FFF8FFFFF41400080400002080B586B0FA
:1012600000AF0023FB600023BB6000237B610023F1
:101270007B6000233B61204B5B68FB60FB680C22BA
:101280001340042B02D0082B03D02CE01B4B3B61F6
:101290002CE0FB689B0C0F221340194AD35C7B6047
:1012A000154BDB6A0F221340164AD35CBB60FA6809
:1012B00080235B02134009D0B9681048FEF724FF71
:1012C00003001A007B6853437B6109E079680A00D8
:1012D0005201521A93019B1ADB005B181B027B61BF
:1012E0007B693B6102E0054B3B61C0463B691800EE
:1012F000BD4606B080BDC0460010024000127A0014
:10130000041500081415000890B589B000AF786086
:101310000A00BB1C1A80C0239B001248002219003F
:10132000FFF77AFB0C243B19180014231A00002144
:1013300000F0A8F8BB1C1A8821007B181A607B18E3
:1013400001225A607B1800229A607B180022DA6022
:101350007A187B6811001800FFF7EEF9C046BD4609
:1013600009B090BD0008004880B582B000AF02000F
:10137000BB1D1A80BB1D1B88012B07D1054B1B7899
:101380005A425341DBB21A00024B1A70C046BD46A6
:1013900002B080BD2C00002080B500AF344B1B781C
:1013A000002B54D0FFF7E0F80200324B1B68D31A31
:1013B000314A934208D8314B1868314B1B880022C0
:1013C0001900FFF729FB4FE0FFF7CEF80200294B89
:1013D0001B68D31A284A934212D9FFF7C5F80200B6
:1013E000244B1B68D21AFA239B009A4208D2234B43
:1013F0001868234B1B8801221900FFF70DFB33E00F
:10140000FFF7B2F802001B4B1B68D21AFA239B00AD
:101410009A4229D3FFF7A8F80200164B1A60174B1F
:101420001868174B1B8800221900FFF7F5FA144BB8
:101430001A8880239B009A4204D1114B80225200CB
:101440001A8011E00E4B802292001A800CE00B4BA8
:1014500018680B4B1B8800221900FFF7DDFAFFF715
:1014600083F80200034B1A60C046BD4680BDC046EB
:101470002C00002034000020B503000000000020F4
:101480000E00002003008218934200D170471970AB
:101490000133F9E770B500260C4C0D4D641BA41008
:1014A000A64209D1002600F019F80A4C0A4D641B27
:1014B000A410A64205D170BDB300EB589847013681
:1014C000EEE7B300EB5898470136F2E72415000821
:1014D000241500082815000824150008F8B5C04692
:1014E000F8BC08BC9E467047F8B5C046F8BC08BCBE
:0414F0009E4670475D
:1014F40000000000000000000102030406070809C0
:1015040002030405060708090A0B0C0D0E0F101040
:101514000102030405060708090A0B0C0D0E0F103F
:04152400E9000008D2
:04152800C1000008F6
:10152C000008004800127A000400000001000002CC
:04000005080004618A
:00000001FF
